:400000000080002011000000D1110000D111000008B5044B1A6803F53F5302331A6001F0D9F800BFFA46004010B5054C237833B9044B13B10448AFF300800123237010BDE1
:40004000E88EFF1F00000000EC1F0000084B10B51BB108480849AFF300800848036803B910BD074B002BFBD0BDE81040184700BF00000000EC1F0000EC8EFF1F0881FF1F51
:400080000000000008B501F00FFFF8B100220BE00F4B1B6803EB830303EB830313440D49C95C0D4B99540132182AF1DD0848026801320A4B83FB0231D317C3EBE10303EB52
:4000C00083039B00D31A036001F0E2FE08BD00BF048FFF1F0C81FF1F2C92FF1F6766666638B50120014641F6FF724FF4804301F089FE054601F0EEFB0446192102461123C9
:4001000001F002FC2046094989B246F2794201F00FFC2846214601F0ADFB2846012101F04DFBFF2001F0BAFE38BD00BF2C92FF1F08B501F001FBC0B2CF2804D901220F4BF2
:4001400083F8F42108BD932804D906220B4B83F8F42108BD2E2804D80222084B83F8F42108BD6A2804D80722044B83F8F42108BD0522024B83F8F42108BD00BF0C81FF1F53
:4001800008B501F02DFDC0B2932804D90422084B83F8F52108BD6A2804D80322044B83F8F52108BD0522024B83F8F52108BD00BF0C81FF1F042802D169B901207047012800
:4001C00002D151B902207047022801D139B9704739B9012070470420704703207047032070470420704700BF38B5064C94F8F65101F052FC01462846FFF7DCFF84F8F60167
:4002000038BD00BF0C81FF1F38B5064C94F8F75101F03AFC01462846FFF7CCFF84F8F70138BD00BF0C81FF1F034B187159710122024B83F8F8217047048FFF1F0C81FF1F24
:400240000222024B83F8F821704700BF0C81FF1F18280CD813290CD801EB810101EB81010144064B5B5C072B05D10120704701207047012070470020704700BF3890FF1FDF
:4002800008B5044A93681844D06001200146FFF7CBFF08BD048FFF1F08B5044A93681844D06002200121FFF7BFFF08BD048FFF1F08B5044A93681844D06002200146FFF71D
:4002C000B3FF08BD048FFF1F024A936813616C33D3607047048FFF1F08B5184B99681A698B1A6B2B29D8914204D102200146FFF79BFF08BD0C2B02D1FFF7A2FF08BD182BF2
:4003000004D102200146FFF78FFF08BD242B02D1FFF796FF08BD302B04D102200146FFF783FF08BD3C2B02D1FFF78AFF08BD482B03D102200121FFF777FF08BD048FFF1F03
:4003400008B5FFF7C9FF064B9A68DB689A4206D3044B93F8F831012B01D1FFF771FF08BD048FFF1F0C81FF1F564B93F8F931022B00F0A68070B5544B9C6814F00F0F21D1BA
:40038000504B93F8F451012D0DD14F4B1E7D013EF6B230464B4B93F8FA11FFF759FF10B9494B1E750EE0022D0CD1474B1D7D0135EDB22846434B93F8FA11FFF749FF08B93E
:4003C000414B1D75414BA3FB04235B0903EB43031B019C4221D13B4B93F8F451062D0DD1394B1E7D013EF6B23046364B93F8FA11FFF72EFF10B9344B1E750EE0072D0CD113
:40040000314B1D7D0135EDB228462E4B93F8FA11FFF71EFF08B92C4B1D752A4B93F8F631012B0FD1274B93F8FA110131264B187DC9B2FFF70DFF012804D1234B9C610C20F2
:40044000FFF71EFF204B9C6934B39B681C1B14F00F0F34D11F2C0ED81A4B93F8FA51013DEDB2194B187D2946FFF7F2FE18B9154B83F8FA5170BD202C21D9124B93F8FA418D
:400480000134E4B2104B187D2146FFF7E1FEB0B90C4B83F8FA4170BD0A4B93F8FA410134E4B2094B187D2146FFF7D2FE38B9064B9B6813F00F0F02D1024B83F8FA4170BD3D
:4004C000704700BF0C81FF1F048FFF1FABAAAAAA10B5194B1A7D1A77184C94F8FA215A77FFF742FF94F8F931032B24D1124A136A03F596739268934206D8062284F8FB21FD
:40050000012284F8F92110BD0D4BA3FB0213DB0803EB83035B009A420DD1084B93F8FB31062B04D10422054B83F8FB2110BD0622024B83F8FB2110BD048FFF1F0C81FF1F9F
:40054000CDCCCCCC314B1B5C022B5ED0304B53F82030304A9168B1FBF3F203FB1213002B53D110B42C4B1A5C2C4B1A542C4B1B5C2C490B542C490C5C002C44D02B49095C22
:4005800003290ED1013BDBB2254A1354284A125C934238D12344264A13540422234B1A5431E004290ED10133DBB21D4A1354204A125C934227D11B1B1D4A135403221B4BB3
:4005C0001A5420E001290ED1013AD2B2124B1A54184B1B5C9A4216D12244164B1A540222124B1A540FE002290DD10132D2B20A4B1A54104B1B5C9A4205D1121B0D4B1A5450
:4006000001220A4B1A545DF8044B7047BC8FFF1F0093FF1F048FFF1F1090FF1F6092FF1F8892FF1FB092FF1FE88FFF1F948FFF1F3C8FFF1FD892FF1F10B5002408E0074BDE
:400640001B5D022B02D02046FFF77CFF0134E4B2034B1B789C42F2D310BD00BFBC8FFF1F918FFF1F10B40A4C21540A490A540A4A13540A4B9DF804201A54094B029A43F808
:400680002020084B9DF80C201A545DF8044B70471090FF1F8892FF1FD892FF1F3C8FFF1F0093FF1F688FFF1F30B4002333E01C461C4AD05C1C4AD0541C4AD25C1C49CA5441
:4006C00001251C49CD541C49C95C8A420FD001D2042500E00325194805558A4202D28A1AD2B201E0521AD2B215490A5511E0154AD25C904201D2022500E001250F490D55FA
:40070000904202D2101AC0B201E0801AC0B20C4A10550133DBB20C4A12789342C7D330BC704700BF1090FF1F6092FF1F8892FF1FB092FF1FBC8FFF1F3C8FFF1F948FFF1F64
:40074000E88FFF1FD892FF1F918FFF1F30B400210EE001EB810303EB8303C418A55C1344054CE554013200E00022182AF1DD01311329F9DD30BC70473890FF1F2DE9F0432E
:4007800085B0224E012486F8F941062586F8FB5100201F4B187012271E4B1F704FF004081D4B83F800800D2300934FF01E09CDF8049002940A210A460B46FFF753FF00970E
:4007C000CDF804900294204605213A461423FFF749FF00953C2701970294022021462A464346FFF73FFF009501970294032005212A460723FFF736FFFFF756FF06F5FE7028
:40080000FFF7A4FF05B0BDE8F08300BF0C81FF1FE48FFF1F648FFF1F918FFF1F2DE9F04F85B0DFF824A201278AF8F9714FF006088AF8FB814FF00009804B83F80090804B99
:4008400083F8009018227F4B1A70032500953C2401940295484649462A462B46FFF702FF0523009301940295384629461A464B46FFF7F8FE4FF0070BCDF800B001940295FE
:40088000022049465A462B46FFF7ECFE0C2400941E26019602952846494622462B46FFF7E1FE0E23009301960295042029461A464B46FFF7D7FE4FF00F09CDF80090019631
:4008C00002950520042112220B46FFF7CBFECDF80090019602954046414612224346FFF7C1FECDF800900196029558460E2112220B46FFF7B7FE1223009301960295082033
:4009000019464A46FFF7AEFE042300930196029509200E211A461223FFF7A4FECDF80080019602950A200E2142461223FFF79AFE08230093019602950B200E211A461223C7
:40094000FFF790FE0A2300930196029520460E211A461223FFF786FE0094019602950D200E2122461223FFF77DFE0095019602970E2021462A462346FFF774FE04230093E0
:4009800001960297484621461A462346FFF76AFE0523009301960297102021461A462346FFF760FECDF80080019602971120214642462346FFF756FECDF800B0019602975F
:4009C000122021465A462346FFF74CFE0823009301960297132021461A462346FFF742FE0922009201960297142021462346FFF739FE0A23009301960297152021461A4684
:400A00002346FFF72FFE0B22009201960297162021462346FFF726FE0094019602971720214622462346FFF71DFEFFF73DFE0AF57C70FFF78BFE05B0BDE8F08FE48FFF1FD2
:400A4000648FFF1F918FFF1F0C81FF1F2DE9F04784B0DFF8FCA101278AF8F9714FF006088AF8FB810024774B1C704FF01209764B83F800901822754B1A7000941E2501959F
:400A800002972046414642464346FFF7EBFD00940195029738460C2142460B46FFF7E2FD132400940195032602960220014622460346FFF7D7FD00940195029730463146EF
:400AC00022463346FFF7CEFD0094019502960420014622460346FFF7C5FD0094019502960520014622460346FFF7BCFD0094019502974046414622464346FFF7B3FD009435
:400B0000019502960720014622460346FFF7AAFD0094019502960820014622460346FFF7A1FD0094019502970920014622460346FFF798FD0094019502960A20014622464B
:400B40000346FFF78FFD0094019502960B20014622460346FFF786FD0094019502970C20014622460346FFF77DFD0094019502960D20014622460346FFF774FD009401957D
:400B800002960E20014622460346FFF76BFD0094019502970F20014622460346FFF762FD0094019502961020014622460346FFF759FD0094019502961120014622460346B9
:400BC000FFF750FD0094019502974846494622464B46FFF747FD0094019502962046214622462346FFF73EFD0094019502961420014622460346FFF735FD00940195029735
:400C00001520014622460346FFF72CFD0094019502961620014622460346FFF723FD0094019502961720014622460346FFF71AFDFFF73AFD0AF2E450FFF788FD04B0BDE833
:400C4000F08700BFE48FFF1F648FFF1F918FFF1F0C81FF1F10B400210DE001EB810303EB8303134400240648C454013200E00022182AF2DD01311329F9DD5DF8044B704737
:400C80000C81FF1F10B400210EE001EB810303EB830313440748C45C0748C454013200E00022182AF1DD01311329F9DD5DF8044B704700BF3890FF1F0C81FF1F3D4B1B7856
:400CC000013BDBB2012B74D970B43B4B93F8FA413A4B1D7D04EB840303EB83032B44384AD35C052B06D104EB840303EB83032B440021D154314B1A7F954202D15B7F9C42FC
:400D00000AD02E4B5B7F03EB830303EB830313442B4AD15C284AD154002326E0294AD15C294AD05C814205D1284AD65C284AD25C96420AD0254AD25C02EB820202EB820298
:400D40000A441F498E5C1C498E54224AD25C022A0AD11F4AD25C02EB820202EB82021044174A115C144A115401331B4A12789A42D4DC114B04EB840404EB84042C4493F899
:400D8000FB111955002311E01249C95C01290CD10F49C95C0C48C05C104CE45C01EB810101EB810101440448445401339342EBDB70BC7047908FFF1F0C81FF1F048FFF1F45
:400DC0003890FF1F6092FF1F1090FF1FB092FF1F8892FF1FBC8FFF1F918FFF1F688FFF1F064890F8D8170531CA0002EB410303EB8303034400229A72704700BF0C81FF1FEB
:400E0000064890F8D8170531CA0002EB410303EB8303034406229A72704700BF0C81FF1F08B5104B93F8D837012B02D1FFF7A6FC06E0022B02D1FFF7F1FC01E0FFF706FEBF
:400E4000094B1A78094B1A75094B1A78054B83F8FA210322074B1A70FFF7FCFEFFF712FF08BD00BF0C81FF1FE48FFF1F048FFF1F648FFF1F908FFF1F08B50422044B1A706A
:400E80000448FFF763FCFFF7E5FEFFF7FBFE08BD908FFF1FE888FF1F08B51D4B9A681D4BA3FB02131B0903EB4303DB009A4226D1FFF796FF184B93F8F531042B06D1164AEC
:400EC00092F8D837013382F8D83707E0032B05D1114A92F8D837013B82F8D8370E4B93F8D837032B04D903220B4B83F8D82704E01BB90122084B83F8D827FFF781FF064B96
:400F000093F8F631012B01D1FFF78AFF08BD00BF048FFF1FABAAAAAA0C81FF1F38B5002458E021462E4B1B5D022B51D02D4B1A5D2D4B1B7D9A4237D12C48055D2C4890F855
:400F4000FA01854230D1284B5B7F98420AD9294B1B5D012B06D10222214B1A550C20FFF79BF935E0224B93F8FB31042B0FD1204B93F8F931012B0AD103221D4B83F8F9216F
:400F8000194B9A681A620C20FFF792F920E0184B93F8F931032B1BD00222154B83F8F9210C20FFF785F913E09A4211D10F4B5A5C0F4B93F8FA3101339A4209D10D4B5B5CEE
:400FC000012B05D10222064B5A540C20FFF764F90134E4B2084B1B789C42A2D338BD00BFBC8FFF1F1090FF1F048FFF1F8892FF1F0C81FF1F688FFF1F918FFF1F094B93F8A8
:40100000FA31094A127D03EB830303EB83031344064AD35C052B03D10422024B83F8FB21704700BF0C81FF1F048FFF1F3890FF1F08B5154B93F8F931022B0AD10222134BC3
:401040001A701348FFF782FBFFF704FEFFF71AFE08BD0D4B93F8FA310E4A127D03EB830303EB830313440C4AD35C022B0BD10122064B1A700948FFF769FBFFF7EBFDFFF70E
:4010800001FEFFF721F908BD0C81FF1F908FFF1FDC8AFF1F048FFF1F3890FF1FD08CFF1F08B5FFF7E9FE08BD08B51C4A9368013393601B4B1B78032B15D1FFF709FAFFF73F
:4010C0009DFFFFF72BFFFFF7B7FAFFF727FFFFF7AFFFFFF7F3FD134B93F8F731012B1AD1FFF7CAFE17E0042B02D1FFF7D5FE12E0013BDBB2012B0ED80A4B93F8F631012B3F
:4011000002D1FFF78DFE06E0064B93F8F731012B01D1FFF7B1FEFFF713F908BD048FFF1F908FFF1F0C81FF1FF8B5FEF7D9FF244BFF221A70DA7562B6224800F09BFE00F090
:40114000E5FA00F0F1FA00F033FD00F045FD00F089FC00F003FFFFF7A3FF00263746354600E0274600F0CCFE4442631B032B0AD9FFF73AF8FFF748F8FEF7DAFFFFF700F810
:40118000FFF792FF2546BC42ECD00F4B93F8F831012BE7D10136F6B20C4B1A79964204D1002000F027FC2746DCE7084B5B7913449E42D6D1FF2000F01DFC27460026D1E740
:4011C0002C92FF1F850000000C81FF1F048FFF1FFEE700BF08B5104E104D16E029686B68AC68002204E051F8040B43F8040B0432A242F8D1E868002203E0002143F8041B4D
:4012000004328242F9D11035013E002EE6D100F0B3FEFFF789FFFEE7010000005020000008B5134A134B1A60134A136843F40073136000230AE0032B03D8104A52F8231038
:4012400000E00F490F4A42F8231001332F2BF2D90D4B1A780D4B1A700A4A0D4B1A6000F0F7F800F091FA00220A4B1A6008BD00BF0004FA050CED00E014ED00E00000000099
:40128000D11100000080FF1FBC7600400481FF1F08ED00E00081FF1FFEE700BFF0B40022174611E050F82760F3B226F0FF0608E001EB420511F812406D78A5550132013B1A
:4012C000DBB2002BF4D10137272FEBD9F0BC704708B50A46002100F080FE08BD38B50E22264B1A801823264A1370132102321180023213700222234B1A7008224FF040236D
:401300001A70032103F5007319701F4B1B78DBB21E490B701E4B1A8041F25122023B1A80002419250CE01B4B1B7803F0010343EA440404F003044FF4F07000F015FA013D91
:401340000DB1032CEFD115B90320FFF7A5FF124B4FF480721A8007221A7000220F490A704820023108701A700222033B1A700C4A137843F00303137038BD00BF8040004088
:40138000824000400043004008010049A146004022420040254200400440004006400040A2430040F8B51F4B1B78DBB21E4E3478E4B21E4F3D78EDB203F007011C4A11702D
:4013C0001B090132137044F00303337045F003033B700122174B1A700C2230331A704023154A1370023213700632137002321370102102F2851211709032137020220F499C
:401400000A7080200531087003310A700C4A13700A2000F09DFA3D7034704422094B1A70F8BD00BFCF010049F8460040F94600406E5800400D51004001590040235B004091
:40144000585B00407658004008B500F0BBFD08BD38B572B63C4A137843F00403137000240CE03A4963001A1952000A4423445B00C8589188FFF72CFF0134E4B2072CF0D9B2
:4014800000240BE03149A3001A1952000A44106B516B1022FFF7D8FF0134E4B2002CF1D04FF090402A49FFF7F9FE2A480421FFF70FFF294829490422FFF7C6FF284829498F
:4014C0000422FFF7C1FF284A137843F0020313701032137843F002031370244C237843F040032370A2F58632513A137843F0100313701F481F490822FFF7A6FF1E481F492C
:401500000822FFF7A1FF1E481E490822FFF79CFF1D481E490A22FFF797FF1D4A137843F0080313701B4D61232B70FFF7D7FE81232B700122184B1A70FFF734FF174821469C
:401540000E22FFF781FF38BDE8460040F01F0000A00000480076004008760040640D004810760040680D004803500140A043004002510040400D004812510040480D00489C
:4015800022510040500D004830510040580D0048224300400048004004000840B043004008B50A280FD00C2802D0082806D102E04FF4805209E04FF4807206E0002000F0D3
:4015C000C5F9002201E04FF480620021094B198042F2107303FB02F303F6C413064A82FB0302DB17C3EBE223044A1360044B198008BD00BFA093FF1FAD8BDB68A493FF1FB8
:40160000A293FF1F38B500F0B7F804461E4A137843F0020313701032137843F002031370193A137843F0010313701032137843F00103137002F5AA521932137843F003032A
:4016400013701822114B1A70013B1A7842F040021A701A7802F0FC021A70C822053B1A700225A3F59753123B1D70094A137843F0080313700A2000F06BF9064B1D60204667
:4016800000F07EF838BD00BFAB4300400E5900402F5B004080E200E010B504460A280DD00C2802D0082804D101E0C22207E0422205E0002000F04AF9C22200E08222034B08
:4016C0001A702046FFF76CFF10BD00BF0A59004008B5102000F03EF80120072100F056F90120074900F03EF9064A137843F0060313700820FFF7D0FF0022034B1A8008BDE1
:401700005117000009590040A893FF1F08B5054B1B7823B9FFF7DCFF0122024B1A70FFF771FF08BD288FFF1F024A137843F001031370704708590040034B1B78034A108850
:40174000181A40B2704700BFA25B0040A293FF1F704700BF034B1A7800F0F80010431870704700BF824000400230800803D000BF01380046FCD17047EFF3108072B670470E
:4017800080F31088704700BF0B4A7F2313708021517007E0DA0002F1804202F5F042013BDBB21370002BF5D1DB0003F1804303F5F04300221A707047C48EFF1F172815D834
:4017C00031B103010A495A5C42F020025A5405E0030107495A5C02F0DF025A540001044A835C43F00103835400207047012070471070004017280CD80001074BC1180A790B
:4018000042F004020A71C25C42F00102C254002070470120704700BF1070004017280BD80001064A835C03F0F10301F0070143EA4101815400207047012070471070004079
:4018400041F6FF73994201D14FF4005141F6FF739A4201D14FF40052172808D8C00000F1804000F5EC408180C280002070470120704700BF172805D8034B03EB0010417215
:4018800000207047012070471070004017281BD810B4C00000F1804404F5EC44D201D2B201F07F01114321709DF804201201D2B203F00F03134363709DF8083003F00F0328
:4018C000A3700020E07001E0012070475DF8044B704700BF10B5FFF74FFF0A4B5B78182B0BD9084A1478013B5370E30003F1804303F5F0431B78137000E0FF24FFF740FF4A
:40190000204610BDC48EFF1F10F0800F0CD111F4704F0BD1C00000F1804000F5F04001808270C37000207047012070470120704710F0800F08D1C00000F1804000F5F04037
:401940008180C280002070470120704701BE704708B5034B1B7A03FB00F0FFF705FF08BDCC8EFF1F70B504460E46074B1D681F2802D90020FFF7EAFF04F01F04103455F8D7
:40198000240045F8246070BD08ED00E038B504460D46072902D90020FFF7D8FF1F2C02D90020FFF7D3FF04F01F0000F1604000F564406D01EDB2057038BD00BF054A137863
:4019C00043F0040313701032137843F004031370704700BFA8430040054B1A7802F0FD021A701A7800F0020010431870704700BF28580040014B1870704700BF825B0040A6
:401A0000064B1B78C3F3810303F19243063393F82831DBB2024A1370704700BF285800400A46004008B5064B1A7802F0F3021A701A7800F00C0010431870FFF7E1FF08BD6B
:401A40002858004010B50024054B1C7001331C700420FFF7E7FF2046FFF7BEFF10BD00BF2858004008B5074B1B7823B9FFF7EAFF0122044B1A70FFF7A1FF6420FFF7BAFF9A
:401A800008BD00BF298FFF1F024B1878C0F34000704700BF31510040024B187800F00100704700BF3151004010B5022001214FF4804241F6FF7300F057F9084C20700220C1
:401AC000012141F6FF72134600F06EF96070044800F08AF9022000F08DF910BD2C8FFF1FE91B000070B52C4C2078FFF783FE6078FFF780FE294B1B78FF2B03D1FFF7EAFEC0
:401B0000264B1870254D2A78104602210623FFF7FBFE214E341DA4B2287845F6A0312246FFF706FF30782978FFF7A4FE6B78FF2B02D1FFF7CFFE6870184D6A7810460221C6
:401B40000723FFF7E1FE68782146154A92B2FFF7EFFE114C60786978FFF78CFE20780121FFF72CFE60780121FFF728FEFFF704FE0C4A137843F020031370FFF701FE0A4B17
:401B80001A7842F001021A701A7842F002021A700422064B1A6070BD2C8FFF1FDC8EFF1FAC93FF1F936400407264004080E200E008B5074B9B6823B9FFF776FF0122044B4C
:401BC0009A60FFF78FFF00F0ADF8024B1B7808BD2C8FFF1F6464004008B500F0B1F808BD08B500F0B5F808BD704700BF08B50A280FD00C2802D0082806D102E04FF48052CA
:401C000009E04FF4807206E00020FFF79FFE002201E04FF480620021094B198042F2107303FB02F303F6C413064A82FB0302DB17C3EBE223044A1360044B198008BD00BF99
:401C4000B093FF1FAD8BDB68B493FF1FB893FF1F10B5FFF791FD0446184A137843F0010313701032137843F00103137002F5AA520832137843F0030313701822104B1A7066
:401C8000013B1A7842F040021A701A7802F0FC021A70C822053B1A700222A3F597530C3B1A70084A137843F0080313700A20FFF74FFE2046FFF764FD10BD00BFAB4300409F
:401CC00006590040275B004010B504460A280DD00C2802D0082804D101E0C22207E0422205E00020FFF732FEC22200E08222034B1A702046FFF77AFF10BD00BF02590040E3
:401D000008B5064A137843F0060313700820FFF7DBFF0022024B1A8008BD00BF01590040B293FF1F08B5054B1B7823B9FFF7E8FF0122024B1A70FFF78BFF08BD388FFF1F4D
:401D4000024A137843F001031370704700590040034B1B88034A1088181A00B2704700BFA05B0040B893FF1FF0B583B084468E4617461E460B4C022525700023009301931A
:401D80002846614672462B46FFF780FD207839463246FFF755FD20782946FFF73FFD207803B0F0BDDE8EFF1FF0B583B086460F4616461D460B4C01232370002200920192D3
:401DC000184671463A46FFF761FD207831462A46FFF736FD20780221FFF720FD207803B0F0BD00BFDF8EFF1F014B1B689864704708ED00E04001C0B2014B1870704700BFEE
:401E000002E400E0F0B583B086460F4616461D460A4C0023237000930193184671463A46FFF734FD207831462A46FFF709FD20780221FFF7F3FC207803B0F0BDE08EFF1F96
:401E4000014B1B681864704708ED00E04001C0B2014B1870704700BF00E400E00122014B1A60704700E100E00122014B1A60704780E100E010B50446FFF7F6FF2046FFF732
:401E8000DFFF0720FFF7E2FFFFF7E8FF10BD00BF0122014B1A60704780E200E0014B1870704700BF74640040014B1878704700BF74640040024A137843F080031370704768
:401EC0007A640040014B1870704700BF88640040014B1878704700BF68640040014B1860704700BF28650040014B1868704700BF48650040014B1860704700BF08650040D3
:401F0000024B1B78024B1868704700BF086500404865004008B501E0FFF7E6FFFFF7D8FF10F0080FF8D108BD08B54FF0FF30FFF7D5FF4FF0FF30FFF7DDFFFFF71DFC064A65
:401F4000137843F010031370FFF71AFCFFF7E2FF0020FFF7B7FF08BD9864004008B5054B1B7823B9FFF7E0FF0122024B1A70FFF7A1FF08BD398FFF1F0E4B70B51E460E4C95
:401F80000025E41AA410A54204D056F8253098470135F8E700F04AF8084B094C1E46E41AA4100025A54204D056F8253098470135F8E770BD3820000038200000382000005C
:401FC0004020000010B5431E0A44914204D011F8014B03F8014FF8E710BD03460244934202D003F8011BFAE77047000000000000405100403000C05100401000F051004052
:40200000100000000140001000140140000800400140000A004C0140000210500140100000500140300D004810000000F8B500BFF8BC08BC9E4670474D00000021120000F2
:40204000F8B500BFF8BC08BC9E46704729000000602000000881FF1FE00D0000D8040000000000000001000000000000000000FF00000000000000000000000007000002BF
:402080000000000000000000000000FF000000000000000000070000000300000000000000000000000000FF0000000000000700000000040000000000000000000000000D
:4020C00000000000000000070000000000050000000000000000000000000000000000000700000000000006000000000000000000000000000000000007000000000000C0
:40210000000700000000000000000000000000000000070000000000000000FF00000000000000000000000000000007000000000000000000FF000000000000000000008C
:40214000000000000700000000000000000000FF00000000000000000000000000070000000000000000000000FF000000000000000000000000070000000000000000004C
:40218000000000FF00000000000000000000000700000000000000000000000000FF00000000000000000000070000000000000000000000000000FF000000000000000014
:4021C0000007000000000000000000000000000000FF00000000000000000700000000000000000000000000000000FF000000FF00000007000000000000000000000000CD
:402200000000000000FF00000000000007000000000000000000000000000000000000FF00000000000700000000000000000000000000000000000000FF000000FF07008D
:4022400000000000000000000000000000000000000000FF000000070505040402011306000000000000000000000000000000000000000000000002070000000000000021
:402280000000000000000000000000000000000000070000070707070707070707000000000000000000000000000700070700000000000000070700000707070000000799
:4022C0000707070700000000000000000000070000070700000000000000000007070000000000000000000700000007000000000000000000070700000000000000000083
:402300000707000007000000000000000000070707070707070707070007000007070000000000000000000700000000000000000000070000070700000000000000000011
:4023400007000007070707070707070707070707000000000000000000070007070000000000000000000000000000000000000000000700000000000000000000000000DF
:4023800000000000000000000000000707000000000000000000000000000000000000000000000007070000000000000000000000000000000000000000000000070707EC
:4023C000070707070707070707070707070707070707070000000700000000000000000000000000000000000000000707000007000000000000000000000000000000003C
:402400000000000000000000070000000000000000000000000000000000000000000000070700000000000000000000000000000000000000000000000707070707070756
:4024400007070707070707070707070707070707070707070000000007000000000000000000000000000000000000000707070000070000000000000000000000000000AD
:4024800000000000000700000000070000000000000000000000000000000000000007000000000707070707070707000700000000070707000000070000000007000000A5
:4024C0000000000700070000000000070000000007000000000700000000000007000700000000000700000007070000000007000500000000070007000000000007000075
:40250000000007000000000700070700000007000700000000000707000000070000000007000707000000070007000000000007000000000700000000000000070700001D
:4025400007000700000000000700000007070000000707000000070700070007000000000007000000000700000000070000000000000700070000000000070700000007D6
:40258000000000000707000000000707000700000000000700000000070000000007070700000007070000000000000207000000070700000000070707070707070707076A
:4025C000070707070707000000000700000000000000000000000000000000000000070700000007000000000000000000000000000000000000000000000000070000008E
:402600000000000000000000000000000000000000000000070700000000000000000000000000000000000000000000000707070707070707070707070707070707070707
:402640000707070707070707000000000000000000000000000000070000000000000000070000000000000000000000000000000702000000000000000700000000000004
:4026800000000000000000000007000000000000000007000000000000000000000000000000070000000700000000070000000000000000000000000000000000000000F7
:4026C0000007000007000000000000000000000000000000000000000000000000070000000707000000070700000007070000000007070000000700000000000000000086
:402700000000000000000000000000000000000700070000000000000000000000000000000000000000000007000000000000000000000000000000000000000000000084
:402740000007000007000000000000000000000000000000000000000000070000000000070000000007000000070700000000070700000700000000000000000000000013
:4027800000000000000000000000000007000000000000000000000000000000000000000000000007070000000000000000000000000000000000000000000700000700F6
:4027C000000000000007070000000007070000000000000000000007000000000000000000000000000007000000000707000000070000000707000000000000000000008C
:402800000000000000000000000700000000000000000000000000000000000000000000000007070700000000000000000000000000000000000000000000070100000074
:4028400000000000070007000000070700000707070700070707000000000000070007000700070000070000000007000700000000000000000700000007000707070700B0
:402880000000070000070707000000000000070000000700070000070000070000000700000000000000000700000007000700000700070707070007070700000000000085
:4028C000000000000000000000000000000000000000000000000000000007070700070000070007000007000707070000000000000000070007000707000700070700075A
:40290000000700070000000000000000070700000700070700070007070007070000000000000000000700070007000007000700000700070007000000000000000000000B
:402940000000000000000000000000000000000000000000000000000000000000000000000000000000000000000000000000000000000000000000070000000000000050
:402980000000000000000000000000000000000000000000000000000000000000000000000000000000000000000707000000000000000000000000000000000000000009
:4029C00000000000000000000000000000000000000000000000000000000000070707000000000000000000000000000000000000000000000000000000000000000000C2
:402A00000000000000000000000000000000000000000000000000000000000000000000000000000000000000000000000000000000000000000000000000000000000096
:402A400000000000000000000000000007000000000000000700070007070700070007000000000000070000000000000007070700070007000700070000000000000700DF
:402A800000000000000000070000070007000700070000000000000700000000000000000700000707070007070700000000000007000000000000000000000000000000B4
:402AC000000000000000000000070000000000070000000707070000070700070707000000000700000000000700000007000700070000000007000000000007000000005F
:402B00000007000000070007000007070000070000000000070000000000070707000707070007070000000700070000000700000000000000000000000000000000000017
:402B40000000000000000700000000000000000000000000000000000000000000000007000000000000000000000000000000000000000000000000070000000000000040
:402B80000000000000000000000000000000000000070000000000000000000000000000000000000000000000000700000000000000000000000000000000000000000007
:402BC00000000007000000000000000000000000000000000000000000000000070000000000000000000000000000000000000000000000000700000000000000000000C0
:402C00000000000000000000000000000000070000000000000000000000000000000000000000000000000700000000000000000000000000000000000000000000000086
:402C400007000000000000000700070007070700070007000000000000070000000000000007070700070007000700070000000000000700000000000000000700000700CF
:402C800007000700070000000000000700000000000000000700000707070007070700000000000007000000000000000000000000000000000000000000000000070000B9
:402CC000000000070000000700070707000700000700070000000700000000000700000007000700070007070007000700000007000000000007000700070007000700072C
:402D00000007070000000000070000000000000700070000070707000700000700070000000700000000000000000000000000000000000000000000000007000000000038
:402D40000000000000000000000000000000000000000007000000000000000000000000000000000000000000000000070000000000000000000000000000000000000045
:402D800000000000000700000000000000000000000000000000000000000000000007000000000000000000000000000000000000000000000000070000000000000000FE
:402DC00000000000000000000000000000000000070000000000000000000000000000000000000000000000000700000000000000000000000000000000000000000000C5
:402E0000000007000000000000000000000000000000000000000000000000077F800000070000000000E02EC05D00001800000000366E01FFFFFFFFFF000000000000009B
:402E40000000000000000000000000000000000000000000000000000000000000000000000000000000000000000000000000000000000000000000000000000000000052
:402E80000000000000000000000000000000000000000000000000000000000000000000000000000000000000000000000000000000000000000000000000000000000012
:402EC00000000000000000000000000000000000000000000000000000000000000000000000000000000000000000000000000000000000000000000000000000000000D2
:402F00000000000000000000000000000000000000000000000000000000000000000000000000000000000000000000000000000000000000000000000000000000000091
:020000040003F7
:0200000480007A
:4000000003520040025B0040016400402C00014035010140270201404C030140240401404805014026060140480701402B0801404F090140420A01404E0B01404B0C01404B
:40004000430D0140370E0140310F01403F1401404C1501402B1601404D17014040180140571901404D1A0140521B01400D400140074101400242014003430140064501403C
:4000800006460140084701400948014007490140124C0140054D0140055001400251014008A00964190427842F84880D010405010A100B040C080F02100111801340140419
:4000C0001520171019081A011E021F012204230825402608278029102B202C022D0233FF361F388039023E403F045608580459045B045C815D905F118301B101D804D904E2
:40010000DC11DF010011020103200420050406010A810B280E020F88101411011202174018031B402010220124802603280429642A012BA42F9030123240335435243601AE
:40014000374038A039013A083B283E013F805880624079208C108D208F80C0EFC2DFC48FCACFCCFFCE9FD608D808DE04E60107012A013101360152035302580459045B048F
:400180005C115D105F0181018A018C089008940898019E08A202A408A703A804AC04B008B102B203B301B404B820BE11D602D736D804D90FDB0FDC19DD10DF0100400308C8
:4001C00004A205040A880B110E020F08100D12501750180419091B081E021FC0210922042501274029082D102F80352436023740382039123D403E08580460046802690139
:400200006B146C086E80714072097A40800181408204851089088D018F40908292029420952196019A409D649E089F54A202A304A402A780AC80B202B504C0F3C2CFC4CF09
:40024000CAA2CCF0CE51D602D804DE01E203E404E620EA800101070109010A010C020F0110021101140215051B011D012105270229012D012E0430023204330434013703B5
:4002800039083E013F445401580459045B0F5C015D105F01D804D904DC11DF0101080201038404A00504074009020A040B220E041012111215081710192C1A041B06228481
:4002C00028882A402B202C102D202F40300832523504376039403A053B103D10584069407A408048840186408C408E408F20908091119202939094609680970198409A846D
:400300009B449C019D249E10A002A101A240A380AC40AE04AF10B680C0FFC24FC46FCAEFCC7FCE2FD608DE01E20AEA08580459045C115F01802084048610880C8A038C085E
:400340008D018E1090019301941098209E5C9F01A203A601A901AA02AC03AD01B003B21CB420B501B640B701B808BA80BE01BF50D804D904DC18DF11001A01800420060252
:40038000075109080A860F081282132815081608181819801A041B4220022140222029042A302B812C022D202F403010310232403318375138203A8A3B023F08792080404C
:4003C00083288E029101920293809460950896A0970399249A809C109E109F10A280A384A808A902AA01AC80AF10B216B302B504B680B720C0FFC24FC46FCABFCCBFCE4F97
:40040000DE04E045EA05EE0201070201070609070D010F0413031507160119082108250729042D0830013508370739203E013F505401580459045B0B5D905F018B019601B5
:400440009701AE01B301B601B880B908BE40BF04D608D804D904DB04DC11DD90DF010220040209890A040BA00F2010A61A021E802310251026102701280429012A082C10C4
:400480002D402E1130013188326235103601370439103B803C013D283E40582059405D055E80600262806308680269106B107E808120830487108B018C208D1090029281A2
:4004C000954098109C089D109F04A020A149A206A520A610A724AA50AE01B141B204B346B501C014C22FC40FCAF7CCEFCEFCD6DCD80CDE80E048E610E890EC8002100906FE
:400500000B0112561410160118261A491C101D011E0A1F02222629072C102E263060320333043410360C37033A8A3E105280580A590A5B095C885D905F3180408440870299
:40054000884089108A128C768D08904092249304943F95049A079C079D10A240A301A638A864A906AC40AE09B23FB307B440B507B718B908BE14BF44D804D90ADC80DF01F0
:400580000102054106180A5A0D210E2210021270134014041602170519201A5A1D081E042280231024202510271129202E022F44328034043504368037023B103C483E0852
:4005C0003F10700178017B247D88840288108B088C208E038F089040928193409420954096089710980199079A409B029C089D309F10A004A144A224A510A680A728AE019D
:40060000AF08B602B704C0F8C2FFC4F9CAA4CCD8CE74DE57E010E202E410EE10000408030C020E010F01100C13021701180C1B0124012501260227022B01320834043503D4
:40064000360338083B203E14580A59045C885F018403861488048A088B418C038E148F4194029504961597819803990C9A189B029C029E159F41A002A110A215A320A40220
:40068000A508A615A741A802A971AA15AB82AD20AF10B001B130B202B3C0B40CB503B610B70CBA20BB28BE45BF40D80AD90ADC88DF3100440120042205400A060B100E04EF
:4006C0000FC012A8162019821A141C0A1D4422282342270C29A02A402B502F2832A834083510360238403B103D4078017B207D8882148301840185408C808D048E40904673
:40070000920294209608971299019A209C819F10A310A401A554A6A8A720B102B608C0D7C257C42ECA6FCCEECE1CDE53E010E202E440E810EA80EC2006240A040E16181594
:400740001A2A1E08221526042A1530033430360C3AA2580A59045C185F3180808122830486328786882989118A548B028E4291C4930294809505970A99359A2E9B489C80B4
:40078000A229A62BAB86AD02AE2BAF84B080B21AB407B50FB662B7F0BAA8BBE0BE01D80AD90ADC88DF0100440208042005C406400A0A0E080F1212E0131016221701184623
:4007C0001A021B111C081D451E081F042408270928802A082B082D802F043080311237193B023C0A3D203E2278017B207D8880048C808D108F08C0F7C2E3C4BECA37CCEDA1
:40080000CEE1DE53E050E44001210208034205410645072209010A060B040D7A0E100F0411011208130215011605170219011A251B021D081E251F10210122252302242905
:40084000265229012A042B022D102E252F08301831603203330634603501360437183A2A3B083E403F10580459045C885F1185018D0199019D01A301A501AD01B101D804C7
:40088000D904DC11DF01004403880602074008080A860C120F08108112201310142015081688184619941A081B89210122512310260129922C122E02300131243240342091
:4008C0003740380839823B103E8879208001824086A08701888989228A018C448E01900891A892049440950296A897109A0A9B409C099D149EA09F01A002A220A304A480AC
:40090000A701AB84AE04C09FC25FC47FCADDCC3FCE5FDE04E21AE405E812EC20EE08150119011D0135013F10580459045C115F01810283088502870889088B029003930503
:400940009401950A9B019D089F02A204A305A402A508A702A90AAD02AF08B003B108B204B301B504B702BB28BE01BF41D804D904DC81DF11000403810420050807710820B5
:4009800009800A800B100F081012110113201420150C160818A01A102008212A23012708281929042B402D042F80308031203285340835103681380839023B103C043E9AE9
:4009C000792081808201834089108C128D088E0290089189920694E0952096A097019A089E209F19A220A344A406A50AA701A840AB4AB001B124B208B340C0FDC24FC46FA7
:400A0000CACFCCFFCEF7DE04E601EC04EE010301060507020B020E05200226042802300232043303360138803E453F04405649FF4AFF4BFF4F015018580459045A0B5C1130
:400A40005D095F016040624064406540668068806A806C806E808B019B01B701B980BF40C056C9FFCAFFCBFFCD83CE03CF01D018D804D904DA0BDC11DD09DF01E040E2409E
:400A8000E440E540E680E880EA80EC80EE80004004040521060208140A800C150D900E0C108112201542162017281E5220022504281129202A402C802D202E0C3004318198
:400AC0003310340535083620384039403BA03C443E2248024A084C034E084F2078027E808120824089408A018C808D818E249002928293A0940195059654980799029B10B9
:400B00009C089D119E08A140A2A4A480A504A601A710A940AA40AC20AD40B004B102B220B320C0F1C2FEC4FDCAEECCEFCEFCD23CDE81E240E440E620E8A0EC80405249FFDD
:400B40004AFF4BFF4D834E034F015018580459045A0B5C115D095F016040624064406540668068806A806C806E8080058101820A850186048A048E049204930A960897046C
:400B80009A019B129E01A10AA204A314A601A70AAA02B318B403B506B60CB701BAA0BB28BF40C056C5ECC620C80BC9FFCAFFCBFFCD83CE03CF01D018D804D904DA0BDC8899
:400BC000DD09DF01E040E240E440E540E680E880EA80EC80EE80010802400502061107080A840D010E2A108011401220142417011D301F802401272829482D022F103081F3
:400C000032203602372839603D083E02432048024C024D054F20573059405A8078027C047D887E80800882058405852089018A128BB98C208D048E0191609284940595074B
:400C40009803990A9A509C089D109E029F28A082A140A2A2A710AE12B001C0FCC2FAC47DCACACCEDCECCD004D238DE91E060E280E440E6A0E810EC20EE0812041410300880
:400C8000324036803A043C023F808240C460CC70CEE0E6808808A408A680A740AC10B001EC40A680A7408F80A680A74009028502A701B301C208EA011B0127808780A7017B
:400CC000C608C801440187088B049A10B210D004E404EC04208024082B80A680A780AB40C860CA40EA205A808E40AE80B040B404D480EE101F80340258405B085F04608014
:400D00006610888093049A109B089C01C601CC01D401D603D803E004AF80B041B402E809EC04100211011A021C021D01003F102A02010000000000000201020002010200FA
:400D40000100000000000100A0F45400F4000000100000000000000001000201000000040C000000000100000002000000000000000000000000000000000000000000006E
:400D80000000000000000000000000000000000000000000000000000000000000000000000000000000000000000000000000000000000000000000000000000000000033
:400DC00000000000000000000000000000000000000000000000000000000000000000000000000000000000000000000000000000000000000000000000000000000000F3
:400E000000000000000000000000000000000000000000000000000000000000000000000000000000000000000000000000000000000000000000000000000000000000B2
:400E40000000000000000000000000000000000000000000000000000000000000000000000000000000000000000000000000000000000000000000000000000000000072
:0200000490006A
:0400000000004005B7
:0200000490105A
:04000000BC90ACAF55
:0200000490303A
:02000000C152EB
:0200000490402A
:4000000000000000000000000000000000000000000000000000000000000000000000000000000000000000000000000000000000000000000000000000000000000000C0
:400040000000000000000000000000000000000000000000000000000000000000000000000000000000000000000000000000000000000000000000000000000000000080
:400080000000000000000000000000000000000000000000000000000000000000000000000000000000000000000000000000000000000000000000000000000000000040
:4000C0000000000000000000000000000000000000000000000000000000000000000000000000000000000000000000000000000000000000000000000000000000000000
:0200000490501A
:0C00000000012E16106900012E26D1BB55
:00000001FF